{
  "_format": "hh-sol-artifact-1",
  "contractName": "OwnerLotteryControls",
  "sourceName": "contracts/OwnerLotteryControls.sol",
  "abi": [
    {
      "inputs": [
        {
          "internalType": "address",
          "name": "",
          "type": "address"
        },
        {
          "internalType": "uint256",
          "name": "",
          "type": "uint256"
        }
      ],
      "name": "activeTickets",
      "outputs": [
        {
          "internalType": "uint16",
          "name": "looteryID",
          "type": "uint16"
        },
        {
          "internalType": "uint256",
          "name": "ticketPrice",
          "type": "uint256"
        },
        {
          "internalType": "uint256",
          "name": "ticketSerialNo",
          "type": "uint256"
        }
      ],
      "stateMutability": "view",
      "type": "function"
    },
    {
      "inputs": [
        {
          "internalType": "string",
          "name": "_name",
          "type": "string"
        },
        {
          "internalType": "uint8",
          "name": "_age",
          "type": "uint8"
        },
        {
          "internalType": "uint64",
          "name": "_mob_no",
          "type": "uint64"
        }
      ],
      "name": "addNewParticipant",
      "outputs": [],
      "stateMutability": "nonpayable",
      "type": "function"
    },
    {
      "inputs": [
        {
          "internalType": "uint256",
          "name": "",
          "type": "uint256"
        }
      ],
      "name": "allLottery",
      "outputs": [
        {
          "internalType": "uint256",
          "name": "lottery_ID",
          "type": "uint256"
        },
        {
          "internalType": "string",
          "name": "lootName",
          "type": "string"
        },
        {
          "internalType": "uint256",
          "name": "startDateTime",
          "type": "uint256"
        },
        {
          "internalType": "uint256",
          "name": "endDateTime",
          "type": "uint256"
        },
        {
          "internalType": "uint256",
          "name": "drawDateTime",
          "type": "uint256"
        },
        {
          "internalType": "uint256",
          "name": "ticketPrice",
          "type": "uint256"
        },
        {
          "internalType": "uint256",
          "name": "totalCollection",
          "type": "uint256"
        },
        {
          "internalType": "uint256",
          "name": "ticketSerialNo",
          "type": "uint256"
        },
        {
          "components": [
            {
              "internalType": "uint256",
              "name": "firstPrize",
              "type": "uint256"
            },
            {
              "internalType": "uint256",
              "name": "secondPrize",
              "type": "uint256"
            },
            {
              "internalType": "uint256",
              "name": "thirdPrize",
              "type": "uint256"
            }
          ],
          "internalType": "struct BaseLottery.allPrizes",
          "name": "winners",
          "type": "tuple"
        },
        {
          "components": [
            {
              "internalType": "uint256",
              "name": "firstPrize",
              "type": "uint256"
            },
            {
              "internalType": "uint256",
              "name": "secondPrize",
              "type": "uint256"
            },
            {
              "internalType": "uint256",
              "name": "thirdPrize",
              "type": "uint256"
            }
          ],
          "internalType": "struct BaseLottery.allPrizes",
          "name": "prizeAmount",
          "type": "tuple"
        },
        {
          "internalType": "enum BaseLottery.lotteryStatus",
          "name": "status",
          "type": "uint8"
        }
      ],
      "stateMutability": "view",
      "type": "function"
    },
    {
      "inputs": [
        {
          "internalType": "address",
          "name": "",
          "type": "address"
        }
      ],
      "name": "allParticipants",
      "outputs": [
        {
          "internalType": "string",
          "name": "name",
          "type": "string"
        },
        {
          "internalType": "uint8",
          "name": "age",
          "type": "uint8"
        },
        {
          "internalType": "uint64",
          "name": "mobile_no",
          "type": "uint64"
        },
        {
          "internalType": "bool",
          "name": "isExists",
          "type": "bool"
        }
      ],
      "stateMutability": "view",
      "type": "function"
    },
    {
      "inputs": [
        {
          "internalType": "uint16",
          "name": "_id",
          "type": "uint16"
        }
      ],
      "name": "buyLottery",
      "outputs": [],
      "stateMutability": "payable",
      "type": "function"
    },
    {
      "inputs": [],
      "name": "checkContactCurrentBalance",
      "outputs": [
        {
          "internalType": "uint256",
          "name": "",
          "type": "uint256"
        }
      ],
      "stateMutability": "view",
      "type": "function"
    },
    {
      "inputs": [],
      "name": "checkIfOwnerAccount",
      "outputs": [
        {
          "internalType": "bool",
          "name": "",
          "type": "bool"
        }
      ],
      "stateMutability": "view",
      "type": "function"
    },
    {
      "inputs": [
        {
          "internalType": "string",
          "name": "_name",
          "type": "string"
        },
        {
          "internalType": "uint256",
          "name": "_startDateTime",
          "type": "uint256"
        },
        {
          "internalType": "uint256",
          "name": "_endDateTime",
          "type": "uint256"
        },
        {
          "internalType": "uint256",
          "name": "_drawDateTime",
          "type": "uint256"
        },
        {
          "internalType": "uint256",
          "name": "_ticketPrice",
          "type": "uint256"
        }
      ],
      "name": "createNewLottery",
      "outputs": [],
      "stateMutability": "nonpayable",
      "type": "function"
    },
    {
      "inputs": [
        {
          "internalType": "uint256",
          "name": "_id",
          "type": "uint256"
        }
      ],
      "name": "endLottery",
      "outputs": [],
      "stateMutability": "nonpayable",
      "type": "function"
    },
    {
      "inputs": [],
      "name": "getAllActiveLotteryArrayList",
      "outputs": [
        {
          "internalType": "uint256[]",
          "name": "",
          "type": "uint256[]"
        }
      ],
      "stateMutability": "view",
      "type": "function"
    },
    {
      "inputs": [],
      "name": "getAllEndedLotteryArrayList",
      "outputs": [
        {
          "internalType": "uint256[]",
          "name": "",
          "type": "uint256[]"
        }
      ],
      "stateMutability": "view",
      "type": "function"
    },
    {
      "inputs": [],
      "name": "getParticipantDetails",
      "outputs": [
        {
          "components": [
            {
              "internalType": "string",
              "name": "name",
              "type": "string"
            },
            {
              "internalType": "uint8",
              "name": "age",
              "type": "uint8"
            },
            {
              "internalType": "uint64",
              "name": "mobile_no",
              "type": "uint64"
            },
            {
              "internalType": "bool",
              "name": "isExists",
              "type": "bool"
            }
          ],
          "internalType": "struct Lottery.participant",
          "name": "",
          "type": "tuple"
        }
      ],
      "stateMutability": "view",
      "type": "function"
    },
    {
      "inputs": [
        {
          "internalType": "uint256",
          "name": "_lotteryID",
          "type": "uint256"
        }
      ],
      "name": "lotteryLuckyDraw",
      "outputs": [],
      "stateMutability": "nonpayable",
      "type": "function"
    },
    {
      "inputs": [],
      "name": "pauseTheContract",
      "outputs": [],
      "stateMutability": "nonpayable",
      "type": "function"
    },
    {
      "inputs": [],
      "name": "resumeTheContract",
      "outputs": [],
      "stateMutability": "nonpayable",
      "type": "function"
    },
    {
      "inputs": [],
      "name": "stopAndDestoryTheContract",
      "outputs": [],
      "stateMutability": "nonpayable",
      "type": "function"
    },
    {
      "inputs": [
        {
          "internalType": "uint256",
          "name": "_id",
          "type": "uint256"
        }
      ],
      "name": "updateLotteryToActive",
      "outputs": [],
      "stateMutability": "nonpayable",
      "type": "function"
    },
    {
      "stateMutability": "payable",
      "type": "receive"
    }
  ],
  "bytecode": "0x608060405260026000806101000a81548160ff021916908360028111156200002c576200002b62000257565b5b02179055506103e86001556001600760006101000a81548160ff0219169083600381111562000060576200005f62000257565b5b02179055503480156200007257600080fd5b503380600060016101000a81548173ffffffffffffffffffffffffffffffffffffffff021916908373ffffffffffffffffffffffffffffffffffffffff160217905550620000c76000620000ce60201b60201c565b506200037b565b600060019054906101000a900473ffffffffffffffffffffffffffffffffffffffff1673ffffffffffffffffffffffffffffffffffffffff163373ffffffffffffffffffffffffffffffffffffffff161462000161576040517f08c379a00000000000000000000000000000000000000000000000000000000081526004016200015890620002e7565b60405180910390fd5b806000806101000a81548160ff0219169083600281111562000188576200018762000257565b5b0217905550600280811115620001a357620001a262000257565b5b60008054906101000a900460ff166002811115620001c657620001c562000257565b5b0362000209576040517f08c379a0000000000000000000000000000000000000000000000000000000008152600401620002009062000359565b60405180910390fd5b6002808111156200021f576200021e62000257565b5b81600281111562000235576200023462000257565b5b0362000254573373ffffffffffffffffffffffffffffffffffffffff16ff5b50565b7f4e487b7100000000000000000000000000000000000000000000000000000000600052602160045260246000fd5b600082825260208201905092915050565b7f4f6e6c79204f776e6572206973207065726d6974746564000000000000000000600082015250565b6000620002cf60178362000286565b9150620002dc8262000297565b602082019050919050565b600060208201905081810360008301526200030281620002c0565b9050919050565b7f436f6e74726163742069732064657374726f7965642e00000000000000000000600082015250565b60006200034160168362000286565b91506200034e8262000309565b602082019050919050565b60006020820190508181036000830152620003748162000332565b9050919050565b614472806200038b6000396000f3fe6080604052600436106101025760003560e01c80635b76074e1161009557806390665c271161006457806390665c27146102fa578063923e7e4214610311578063a116ce971461033c578063bfa97ccf14610367578063c548e0821461039257610109565b80635b76074e1461024a578063647d0a431461028a578063677f0132146102b357806382acbc66146102cf57610109565b80634338ffa6116100d15780634338ffa6146101a25780634e9e3c17146101cb57806351d3d517146101e2578063597a12511461020b57610109565b8063050a3e051461010e5780630a072c4414610137578063325d84f61461014e5780633739e7691461017957610109565b3661010957005b600080fd5b34801561011a57600080fd5b5061013560048036038101906101309190612a58565b6103d9565b005b34801561014357600080fd5b5061014c610475565b005b34801561015a57600080fd5b50610163610481565b6040516101709190612b43565b60405180910390f35b34801561018557600080fd5b506101a0600480360381019061019b9190612a58565b6104d9565b005b3480156101ae57600080fd5b506101c960048036038101906101c49190612d24565b610736565b005b3480156101d757600080fd5b506101e0610a0f565b005b3480156101ee57600080fd5b5061020960048036038101906102049190612a58565b610a1b565b005b34801561021757600080fd5b50610232600480360381019061022d9190612df1565b610b3a565b60405161024193929190612e5d565b60405180910390f35b34801561025657600080fd5b50610271600480360381019061026c9190612e94565b610b8f565b6040516102819493929190612f79565b60405180910390f35b34801561029657600080fd5b506102b160048036038101906102ac9190612fc5565b610c75565b005b6102cd60048036038101906102c89190613088565b610e09565b005b3480156102db57600080fd5b506102e46110d5565b6040516102f1919061318f565b60405180910390f35b34801561030657600080fd5b5061030f611230565b005b34801561031d57600080fd5b5061032661123c565b60405161033391906131b1565b60405180910390f35b34801561034857600080fd5b506103516112da565b60405161035e91906131cc565b60405180910390f35b34801561037357600080fd5b5061037c611341565b6040516103899190612b43565b60405180910390f35b34801561039e57600080fd5b506103b960048036038101906103b49190612a58565b611399565b6040516103d09b9a999897969594939291906132a0565b60405180910390f35b600060019054906101000a900473ffffffffffffffffffffffffffffffffffffffff1673ffffffffffffffffffffffffffffffffffffffff163373ffffffffffffffffffffffffffffffffffffffff1614610469576040517f08c379a00000000000000000000000000000000000000000000000000000000081526004016104609061339e565b60405180910390fd5b610472816114d8565b50565b61047f6000611530565b565b606060058054806020026020016040519081016040528092919081815260200182805480156104cf57602002820191906000526020600020905b8154815260200190600101908083116104bb575b5050505050905090565b600060028111156104ed576104ec613229565b5b60008054906101000a900460ff16600281111561050d5761050c613229565b5b1461054d576040517f08c379a00000000000000000000000000000000000000000000000000000000081526004016105449061340a565b60405180910390fd5b600060019054906101000a900473ffffffffffffffffffffffffffffffffffffffff1673ffffffffffffffffffffffffffffffffffffffff163373ffffffffffffffffffffffffffffffffffffffff16146105dd576040517f08c379a00000000000000000000000000000000000000000000000000000000081526004016105d49061339e565b60405180910390fd5b6105e6816116a3565b6105ef8161173e565b6105f761179a565b60006002905061060782826117e4565b60005b60058054905081101561073157826005828154811061062c5761062b61342a565b5b90600052602060002001540361071e57600560016005805490506106509190613488565b815481106106615761066061342a565b5b9060005260206000200154600582815481106106805761067f61342a565b5b90600052602060002001819055506006600560016005805490506106a49190613488565b815481106106b5576106b461342a565b5b90600052602060002001549080600181540180825580915050600190039060005260206000200160009091909190915055600560016005805490506106fa9190613488565b8154811061070b5761070a61342a565b5b9060005260206000200160009055610731565b8080610729906134bc565b91505061060a565b505050565b600060019054906101000a900473ffffffffffffffffffffffffffffffffffffffff1673ffffffffffffffffffffffffffffffffffffffff163373ffffffffffffffffffffffffffffffffffffffff16036107c6576040517f08c379a00000000000000000000000000000000000000000000000000000000081526004016107bd90613576565b60405180910390fd5b60011515600a60003373ffffffffffffffffffffffffffffffffffffffff1673ffffffffffffffffffffffffffffffffffffffff16815260200190815260200160002060010160099054906101000a900460ff1615150361085c576040517f08c379a000000000000000000000000000000000000000000000000000000000815260040161085390613608565b60405180910390fd5b610864611826565b60086000815480929190610877906134bc565b91905055506108888260ff1661189c565b61089b8167ffffffffffffffff1661189c565b82600a60003373ffffffffffffffffffffffffffffffffffffffff1673ffffffffffffffffffffffffffffffffffffffff16815260200190815260200160002060000190816108ea9190613834565b5081600a60003373ffffffffffffffffffffffffffffffffffffffff1673ffffffffffffffffffffffffffffffffffffffff16815260200190815260200160002060010160006101000a81548160ff021916908360ff16021790555080600a60003373ffffffffffffffffffffffffffffffffffffffff1673ffffffffffffffffffffffffffffffffffffffff16815260200190815260200160002060010160016101000a81548167ffffffffffffffff021916908367ffffffffffffffff1602179055506001600a60003373ffffffffffffffffffffffffffffffffffffffff1673ffffffffffffffffffffffffffffffffffffffff16815260200190815260200160002060010160096101000a81548160ff021916908315150217905550505050565b610a196001611530565b565b60006002811115610a2f57610a2e613229565b5b60008054906101000a900460ff166002811115610a4f57610a4e613229565b5b14610a8f576040517f08c379a0000000000000000000000000000000000000000000000000000000008152600401610a869061340a565b60405180910390fd5b600060019054906101000a900473ffffffffffffffffffffffffffffffffffffffff1673ffffffffffffffffffffffffffffffffffffffff163373ffffffffffffffffffffffffffffffffffffffff1614610b1f576040517f08c379a0000000000000000000000000000000000000000000000000000000008152600401610b169061339e565b60405180910390fd5b6000610b2a826118fb565b9050610b368282611c61565b5050565b600b6020528160005260406000208181548110610b5657600080fd5b9060005260206000209060030201600091509150508060000160009054906101000a900461ffff16908060010154908060020154905083565b600a602052806000526040600020600091509050806000018054610bb290613657565b80601f0160208091040260200160405190810160405280929190818152602001828054610bde90613657565b8015610c2b5780601f10610c0057610100808354040283529160200191610c2b565b820191906000526020600020905b815481529060010190602001808311610c0e57829003601f168201915b5050505050908060010160009054906101000a900460ff16908060010160019054906101000a900467ffffffffffffffff16908060010160099054906101000a900460ff16905084565b6005808054905010610cbc576040517f08c379a0000000000000000000000000000000000000000000000000000000008152600401610cb390613952565b60405180910390fd5b60006002811115610cd057610ccf613229565b5b60008054906101000a900460ff166002811115610cf057610cef613229565b5b14610d30576040517f08c379a0000000000000000000000000000000000000000000000000000000008152600401610d279061340a565b60405180910390fd5b600060019054906101000a900473ffffffffffffffffffffffffffffffffffffffff1673ffffffffffffffffffffffffffffffffffffffff163373ffffffffffffffffffffffffffffffffffffffff1614610dc0576040517f08c379a0000000000000000000000000000000000000000000000000000000008152600401610db79061339e565b60405180910390fd5b610dc8611826565b610dd185611f3c565b610dda8461189c565b610de38361189c565b610dec8261189c565b610df5816121d1565b610e02858585858561221f565b5050505050565b600060019054906101000a900473ffffffffffffffffffffffffffffffffffffffff1673ffffffffffffffffffffffffffffffffffffffff163373ffffffffffffffffffffffffffffffffffffffff1603610e99576040517f08c379a0000000000000000000000000000000000000000000000000000000008152600401610e9090613576565b60405180910390fd5b6000600a60003373ffffffffffffffffffffffffffffffffffffffff1673ffffffffffffffffffffffffffffffffffffffff16815260200190815260200160002060010160009054906101000a900460ff1660ff1603610f2e576040517f08c379a0000000000000000000000000000000000000000000000000000000008152600401610f25906139e4565b60405180910390fd5b610f36611826565b610f3e6123f5565b610f478161247d565b610f548161ffff1661189c565b610f618161ffff166125d6565b6000610f708261ffff1661263a565b905034816005015414610fb8576040517f08c379a0000000000000000000000000000000000000000000000000000000008152600401610faf90613a76565b60405180910390fd5b3073ffffffffffffffffffffffffffffffffffffffff166108fc349081150290604051600060405180830381858888f19350505050158015610ffe573d6000803e3d6000fd5b50600061100e8361ffff16612656565b9050600b60003373ffffffffffffffffffffffffffffffffffffffff1673ffffffffffffffffffffffffffffffffffffffff16815260200190815260200160002060405180606001604052808561ffff16815260200134815260200183815250908060018154018082558091505060019003906000526020600020906003020160009091909190915060008201518160000160006101000a81548161ffff021916908361ffff16021790555060208201518160010155604082015181600201555050505050565b6110dd6129d7565b6110e5611826565b600a60003373ffffffffffffffffffffffffffffffffffffffff1673ffffffffffffffffffffffffffffffffffffffff16815260200190815260200160002060405180608001604052908160008201805461113f90613657565b80601f016020809104026020016040519081016040528092919081815260200182805461116b90613657565b80156111b85780601f1061118d576101008083540402835291602001916111b8565b820191906000526020600020905b81548152906001019060200180831161119b57829003601f168201915b505050505081526020016001820160009054906101000a900460ff1660ff1660ff1681526020016001820160019054906101000a900467ffffffffffffffff1667ffffffffffffffff1667ffffffffffffffff1681526020016001820160099054906101000a900460ff161515151581525050905090565b61123a6002611530565b565b60008060019054906101000a900473ffffffffffffffffffffffffffffffffffffffff1673ffffffffffffffffffffffffffffffffffffffff163373ffffffffffffffffffffffffffffffffffffffff16146112cd576040517f08c379a00000000000000000000000000000000000000000000000000000000081526004016112c49061339e565b60405180910390fd5b6112d56127da565b905090565b60008060019054906101000a900473ffffffffffffffffffffffffffffffffffffffff1673ffffffffffffffffffffffffffffffffffffffff163373ffffffffffffffffffffffffffffffffffffffff1603611339576001905061133e565b600090505b90565b6060600680548060200260200160405190810160405280929190818152602001828054801561138f57602002820191906000526020600020905b81548152602001906001019080831161137b575b5050505050905090565b60046020528060005260406000206000915090508060000154908060010180546113c290613657565b80601f01602080910402602001604051908101604052809291908181526020018280546113ee90613657565b801561143b5780601f106114105761010080835404028352916020019161143b565b820191906000526020600020905b81548152906001019060200180831161141e57829003601f168201915b5050505050908060020154908060030154908060040154908060050154908060060154908060070154908060080160405180606001604052908160008201548152602001600182015481526020016002820154815250509080600b0160405180606001604052908160008201548152602001600182015481526020016002820154815250509080600e0160009054906101000a900460ff1690508b565b6114e0611826565b600760009054906101000a900460ff1660046000838152602001908152602001600020600e0160006101000a81548160ff0219169083600381111561152857611527613229565b5b021790555050565b600060019054906101000a900473ffffffffffffffffffffffffffffffffffffffff1673ffffffffffffffffffffffffffffffffffffffff163373ffffffffffffffffffffffffffffffffffffffff16146115c0576040517f08c379a00000000000000000000000000000000000000000000000000000000081526004016115b79061339e565b60405180910390fd5b806000806101000a81548160ff021916908360028111156115e4576115e3613229565b5b02179055506002808111156115fc576115fb613229565b5b60008054906101000a900460ff16600281111561161c5761161b613229565b5b0361165c576040517f08c379a000000000000000000000000000000000000000000000000000000000815260040161165390613ae2565b60405180910390fd5b60028081111561166f5761166e613229565b5b81600281111561168257611681613229565b5b036116a0573373ffffffffffffffffffffffffffffffffffffffff16ff5b50565b600760009054906101000a900460ff1660038111156116c5576116c4613229565b5b60046000838152602001908152602001600020600e0160009054906101000a900460ff1660038111156116fb576116fa613229565b5b1461173b576040517f08c379a000000000000000000000000000000000000000000000000000000000815260040161173290613b4e565b60405180910390fd5b50565b4260046000838152602001908152602001600020600301541115611797576040517f08c379a000000000000000000000000000000000000000000000000000000000815260040161178e90613bba565b60405180910390fd5b50565b6005600680549050106117e2576040517f08c379a00000000000000000000000000000000000000000000000000000000081526004016117d990613c26565b60405180910390fd5b565b8060046000848152602001908152602001600020600e0160006101000a81548160ff0219169083600381111561181d5761181c613229565b5b02179055505050565b6000600281111561183a57611839613229565b5b60008054906101000a900460ff16600281111561185a57611859613229565b5b1461189a576040517f08c379a000000000000000000000000000000000000000000000000000000000815260040161189190613c92565b60405180910390fd5b565b600081116118df576040517f08c379a00000000000000000000000000000000000000000000000000000000081526004016118d690613cfe565b60405180910390fd5b68056bc75e2d6310000081106118f8576118f7613d1e565b5b50565b6060600060019054906101000a900473ffffffffffffffffffffffffffffffffffffffff1673ffffffffffffffffffffffffffffffffffffffff163373ffffffffffffffffffffffffffffffffffffffff161461198d576040517f08c379a00000000000000000000000000000000000000000000000000000000081526004016119849061339e565b60405180910390fd5b61199682612871565b61199f82612904565b60006003905060006005606460046000878152602001908152602001600020600601546119cc9190613d7c565b6119d69190613dad565b9050806002819055506000816004600087815260200190815260200160002060060154611a039190613488565b9050600060405180606001604052806028606485611a219190613d7c565b611a2b9190613dad565b81526020016023606485611a3f9190613d7c565b611a499190613dad565b81526020016019606485611a5d9190613d7c565b611a679190613dad565b81525090506000600367ffffffffffffffff811115611a8957611a88612b80565b5b604051908082528060200260200182016040528015611ab75781602001602082028036833780820191505090505b509050611ac387612960565b81600081518110611ad757611ad661342a565b5b602002602001018181525050611aec87612960565b81600181518110611b0057611aff61342a565b5b602002602001018181525050611b1587612960565b81600281518110611b2957611b2861342a565b5b6020026020010181815250506000604051806060016040528083600081518110611b5657611b5561342a565b5b6020026020010151815260200183600181518110611b7757611b7661342a565b5b6020026020010151815260200183600281518110611b9857611b9761342a565b5b6020026020010151815250905082600460008a8152602001908152602001600020600b0160008201518160000155602082015181600101556040820151816002015590505080600460008a815260200190815260200160002060080160008201518160000155602082015181600101556040820151816002015590505085600460008a8152602001908152602001600020600e0160006101000a81548160ff02191690836003811115611c4e57611c4d613229565b5b0217905550819650505050505050919050565b611c69611826565b600060046000848152602001908152602001600020600b01604051806060016040529081600082015481526020016001820154815260200160028201548152505090506000816040015182602001518360000151611cc79190613def565b611cd19190613def565b905080611cdc61123c565b1015611d1d576040517f08c379a0000000000000000000000000000000000000000000000000000000008152600401611d1490613e95565b60405180910390fd5b600060046000868152602001908152602001600020600f01600085600081518110611d4b57611d4a61342a565b5b6020026020010151815260200190815260200160002060009054906101000a900473ffffffffffffffffffffffffffffffffffffffff1690508073ffffffffffffffffffffffffffffffffffffffff166108fc84600001519081150290604051600060405180830381858888f19350505050158015611dce573d6000803e3d6000fd5b50600060046000878152602001908152602001600020600f01600086600181518110611dfd57611dfc61342a565b5b6020026020010151815260200190815260200160002060009054906101000a900473ffffffffffffffffffffffffffffffffffffffff1690508073ffffffffffffffffffffffffffffffffffffffff166108fc85602001519081150290604051600060405180830381858888f19350505050158015611e80573d6000803e3d6000fd5b50600060046000888152602001908152602001600020600f01600087600281518110611eaf57611eae61342a565b5b6020026020010151815260200190815260200160002060009054906101000a900473ffffffffffffffffffffffffffffffffffffffff1690508073ffffffffffffffffffffffffffffffffffffffff166108fc86604001519081150290604051600060405180830381858888f19350505050158015611f32573d6000803e3d6000fd5b5050505050505050565b60008190506005815111611f85576040517f08c379a0000000000000000000000000000000000000000000000000000000008152600401611f7c90613f27565b60405180910390fd5b601e815110611fc9576040517f08c379a0000000000000000000000000000000000000000000000000000000008152600401611fc090613fb9565b60405180910390fd5b60005b81518110156121cc576000828281518110611fea57611fe961342a565b5b602001015160f81c60f81b9050603060f81b817effffffffffffffffffffffffffffffffffffffffffffffffffffffffffffff1916101580156120535750603960f81b817effffffffffffffffffffffffffffffffffffffffffffffffffffffffffffff191611155b806120b65750604160f81b817effffffffffffffffffffffffffffffffffffffffffffffffffffffffffffff1916101580156120b55750605a60f81b817effffffffffffffffffffffffffffffffffffffffffffffffffffffffffffff191611155b5b806121195750606160f81b817effffffffffffffffffffffffffffffffffffffffffffffffffffffffffffff1916101580156121185750607a60f81b817effffffffffffffffffffffffffffffffffffffffffffffffffffffffffffff191611155b5b806121495750605f60f81b817effffffffffffffffffffffffffffffffffffffffffffffffffffffffffffff1916145b806121795750602060f81b817effffffffffffffffffffffffffffffffffffffffffffffffffffffffffffff1916145b6121b8576040517f08c379a00000000000000000000000000000000000000000000000000000000081526004016121af90614071565b60405180910390fd5b5080806121c4906134bc565b915050611fcc565b505050565b670de0b6b3a764000081101561221c576040517f08c379a000000000000000000000000000000000000000000000000000000000815260040161221390614103565b60405180910390fd5b50565b600060019054906101000a900473ffffffffffffffffffffffffffffffffffffffff1673ffffffffffffffffffffffffffffffffffffffff163373ffffffffffffffffffffffffffffffffffffffff16146122af576040517f08c379a00000000000000000000000000000000000000000000000000000000081526004016122a69061339e565b60405180910390fd5b600360008154809291906122c2906134bc565b919050555060006003546004600060035481526020019081526020016000206000018190555085600460006003548152602001908152602001600020600101908161230d9190613834565b50846004600060035481526020019081526020016000206002018190555083600460006003548152602001908152602001600020600301819055508260046000600354815260200190815260200160002060040181905550816004600060035481526020019081526020016000206005018190555080600460006003548152602001908152602001600020600e0160006101000a81548160ff021916908360038111156123bd576123bc613229565b5b021790555060056003549080600181540180825580915050600190039060005260206000200160009091909190915055505050505050565b6005600b60003373ffffffffffffffffffffffffffffffffffffffff1673ffffffffffffffffffffffffffffffffffffffff16815260200190815260200160002080549050111561247b576040517f08c379a000000000000000000000000000000000000000000000000000000000815260040161247290614195565b60405180910390fd5b565b6000600b60003373ffffffffffffffffffffffffffffffffffffffff1673ffffffffffffffffffffffffffffffffffffffff168152602001908152602001600020805480602002602001604051908101604052809291908181526020016000905b8282101561254457838290600052602060002090600302016040518060600160405290816000820160009054906101000a900461ffff1661ffff1661ffff16815260200160018201548152602001600282015481525050815260200190600101906124de565b50505050905060005b81518110156125d1578261ffff1682828151811061256e5761256d61342a565b5b60200260200101516000015161ffff16036125be576040517f08c379a00000000000000000000000000000000000000000000000000000000081526004016125b590614201565b60405180910390fd5b80806125c9906134bc565b91505061254d565b505050565b6125df816116a3565b42600460008381526020019081526020016000206003015411612637576040517f08c379a000000000000000000000000000000000000000000000000000000000815260040161262e9061426d565b60405180910390fd5b50565b6000600460008381526020019081526020016000209050919050565b60008060019054906101000a900473ffffffffffffffffffffffffffffffffffffffff1673ffffffffffffffffffffffffffffffffffffffff163373ffffffffffffffffffffffffffffffffffffffff16036126e7576040517f08c379a00000000000000000000000000000000000000000000000000000000081526004016126de90613576565b60405180910390fd5b3460046000848152602001908152602001600020600601600082825461270d9190613def565b9250508190555060046000838152602001908152602001600020600701600081548092919061273b906134bc565b91905055503360046000848152602001908152602001600020600f0160006004600086815260200190815260200160002060070154815260200190815260200160002060006101000a81548173ffffffffffffffffffffffffffffffffffffffff021916908373ffffffffffffffffffffffffffffffffffffffff16021790555060046000838152602001908152602001600020600701549050919050565b60008060019054906101000a900473ffffffffffffffffffffffffffffffffffffffff1673ffffffffffffffffffffffffffffffffffffffff163373ffffffffffffffffffffffffffffffffffffffff161461286b576040517f08c379a00000000000000000000000000000000000000000000000000000000081526004016128629061339e565b60405180910390fd5b47905090565b60006002905080600381111561288a57612889613229565b5b60046000848152602001908152602001600020600e0160009054906101000a900460ff1660038111156128c0576128bf613229565b5b14612900576040517f08c379a00000000000000000000000000000000000000000000000000000000081526004016128f7906142d9565b60405180910390fd5b5050565b426004600083815260200190815260200160002060040154111561295d576040517f08c379a000000000000000000000000000000000000000000000000000000000815260040161295490614345565b60405180910390fd5b50565b60008060046000848152602001908152602001600020600701544233600154604051602001612991939291906143ce565b6040516020818303038152906040528051906020012060001c6129b4919061440b565b9050600160008154809291906129c9906134bc565b919050555080915050919050565b604051806080016040528060608152602001600060ff168152602001600067ffffffffffffffff1681526020016000151581525090565b6000604051905090565b600080fd5b600080fd5b6000819050919050565b612a3581612a22565b8114612a4057600080fd5b50565b600081359050612a5281612a2c565b92915050565b600060208284031215612a6e57612a6d612a18565b5b6000612a7c84828501612a43565b91505092915050565b600081519050919050565b600082825260208201905092915050565b6000819050602082019050919050565b612aba81612a22565b82525050565b6000612acc8383612ab1565b60208301905092915050565b6000602082019050919050565b6000612af082612a85565b612afa8185612a90565b9350612b0583612aa1565b8060005b83811015612b36578151612b1d8882612ac0565b9750612b2883612ad8565b925050600181019050612b09565b5085935050505092915050565b60006020820190508181036000830152612b5d8184612ae5565b905092915050565b600080fd5b600080fd5b6000601f19601f8301169050919050565b7f4e487b7100000000000000000000000000000000000000000000000000000000600052604160045260246000fd5b612bb882612b6f565b810181811067ffffffffffffffff82111715612bd757612bd6612b80565b5b80604052505050565b6000612bea612a0e565b9050612bf68282612baf565b919050565b600067ffffffffffffffff821115612c1657612c15612b80565b5b612c1f82612b6f565b9050602081019050919050565b82818337600083830152505050565b6000612c4e612c4984612bfb565b612be0565b905082815260208101848484011115612c6a57612c69612b6a565b5b612c75848285612c2c565b509392505050565b600082601f830112612c9257612c91612b65565b5b8135612ca2848260208601612c3b565b91505092915050565b600060ff82169050919050565b612cc181612cab565b8114612ccc57600080fd5b50565b600081359050612cde81612cb8565b92915050565b600067ffffffffffffffff82169050919050565b612d0181612ce4565b8114612d0c57600080fd5b50565b600081359050612d1e81612cf8565b92915050565b600080600060608486031215612d3d57612d3c612a18565b5b600084013567ffffffffffffffff811115612d5b57612d5a612a1d565b5b612d6786828701612c7d565b9350506020612d7886828701612ccf565b9250506040612d8986828701612d0f565b9150509250925092565b600073ffffffffffffffffffffffffffffffffffffffff82169050919050565b6000612dbe82612d93565b9050919050565b612dce81612db3565b8114612dd957600080fd5b50565b600081359050612deb81612dc5565b92915050565b60008060408385031215612e0857612e07612a18565b5b6000612e1685828601612ddc565b9250506020612e2785828601612a43565b9150509250929050565b600061ffff82169050919050565b612e4881612e31565b82525050565b612e5781612a22565b82525050565b6000606082019050612e726000830186612e3f565b612e7f6020830185612e4e565b612e8c6040830184612e4e565b949350505050565b600060208284031215612eaa57612ea9612a18565b5b6000612eb884828501612ddc565b91505092915050565b600081519050919050565b600082825260208201905092915050565b60005b83811015612efb578082015181840152602081019050612ee0565b60008484015250505050565b6000612f1282612ec1565b612f1c8185612ecc565b9350612f2c818560208601612edd565b612f3581612b6f565b840191505092915050565b612f4981612cab565b82525050565b612f5881612ce4565b82525050565b60008115159050919050565b612f7381612f5e565b82525050565b60006080820190508181036000830152612f938187612f07565b9050612fa26020830186612f40565b612faf6040830185612f4f565b612fbc6060830184612f6a565b95945050505050565b600080600080600060a08688031215612fe157612fe0612a18565b5b600086013567ffffffffffffffff811115612fff57612ffe612a1d565b5b61300b88828901612c7d565b955050602061301c88828901612a43565b945050604061302d88828901612a43565b935050606061303e88828901612a43565b925050608061304f88828901612a43565b9150509295509295909350565b61306581612e31565b811461307057600080fd5b50565b6000813590506130828161305c565b92915050565b60006020828403121561309e5761309d612a18565b5b60006130ac84828501613073565b91505092915050565b600082825260208201905092915050565b60006130d182612ec1565b6130db81856130b5565b93506130eb818560208601612edd565b6130f481612b6f565b840191505092915050565b61310881612cab565b82525050565b61311781612ce4565b82525050565b61312681612f5e565b82525050565b6000608083016000830151848203600086015261314982826130c6565b915050602083015161315e60208601826130ff565b506040830151613171604086018261310e565b506060830151613184606086018261311d565b508091505092915050565b600060208201905081810360008301526131a9818461312c565b905092915050565b60006020820190506131c66000830184612e4e565b92915050565b60006020820190506131e16000830184612f6a565b92915050565b6060820160008201516131fd6000850182612ab1565b5060208201516132106020850182612ab1565b5060408201516132236040850182612ab1565b50505050565b7f4e487b7100000000000000000000000000000000000000000000000000000000600052602160045260246000fd5b6004811061326957613268613229565b5b50565b600081905061327a82613258565b919050565b600061328a8261326c565b9050919050565b61329a8161327f565b82525050565b60006101e0820190506132b6600083018e612e4e565b81810360208301526132c8818d612f07565b90506132d7604083018c612e4e565b6132e4606083018b612e4e565b6132f1608083018a612e4e565b6132fe60a0830189612e4e565b61330b60c0830188612e4e565b61331860e0830187612e4e565b6133266101008301866131e7565b6133346101608301856131e7565b6133426101c0830184613291565b9c9b505050505050505050505050565b7f4f6e6c79204f776e6572206973207065726d6974746564000000000000000000600082015250565b6000613388601783612ecc565b915061339382613352565b602082019050919050565b600060208201905081810360008301526133b78161337b565b9050919050565b7f436f6e7472616374206973206e6f7420696e20616374697665206d6f64650000600082015250565b60006133f4601e83612ecc565b91506133ff826133be565b602082019050919050565b60006020820190508181036000830152613423816133e7565b9050919050565b7f4e487b7100000000000000000000000000000000000000000000000000000000600052603260045260246000fd5b7f4e487b7100000000000000000000000000000000000000000000000000000000600052601160045260246000fd5b600061349382612a22565b915061349e83612a22565b92508282039050818111156134b6576134b5613459565b5b92915050565b60006134c782612a22565b91507fffffffffffffffffffffffffffffffffffffffffffffffffffffffffffffffff82036134f9576134f8613459565b5b600182019050919050565b7f4f776e6572206f662074686973206c6f74746572792063616e2774206170706c60008201527f7900000000000000000000000000000000000000000000000000000000000000602082015250565b6000613560602183612ecc565b915061356b82613504565b604082019050919050565b6000602082019050818103600083015261358f81613553565b9050919050565b7f5573657220416c7265616479206173736f63696174656420776974682074686960008201527f7320616464726573730000000000000000000000000000000000000000000000602082015250565b60006135f2602983612ecc565b91506135fd82613596565b604082019050919050565b60006020820190508181036000830152613621816135e5565b9050919050565b7f4e487b7100000000000000000000000000000000000000000000000000000000600052602260045260246000fd5b6000600282049050600182168061366f57607f821691505b60208210810361368257613681613628565b5b50919050565b60008190508160005260206000209050919050565b60006020601f8301049050919050565b600082821b905092915050565b6000600883026136ea7fffffffffffffffffffffffffffffffffffffffffffffffffffffffffffffffff826136ad565b6136f486836136ad565b95508019841693508086168417925050509392505050565b6000819050919050565b600061373161372c61372784612a22565b61370c565b612a22565b9050919050565b6000819050919050565b61374b83613716565b61375f61375782613738565b8484546136ba565b825550505050565b600090565b613774613767565b61377f818484613742565b505050565b5b818110156137a35761379860008261376c565b600181019050613785565b5050565b601f8211156137e8576137b981613688565b6137c28461369d565b810160208510156137d1578190505b6137e56137dd8561369d565b830182613784565b50505b505050565b600082821c905092915050565b600061380b600019846008026137ed565b1980831691505092915050565b600061382483836137fa565b9150826002028217905092915050565b61383d82612ec1565b67ffffffffffffffff81111561385657613855612b80565b5b6138608254613657565b61386b8282856137a7565b600060209050601f83116001811461389e576000841561388c578287015190505b6138968582613818565b8655506138fe565b601f1984166138ac86613688565b60005b828110156138d4578489015182556001820191506020850194506020810190506138af565b868310156138f157848901516138ed601f8916826137fa565b8355505b6001600288020188555050505b505050505050565b7f43616e2068617665206f6e6c79203520616374697665206c6f74746572792e00600082015250565b600061393c601f83612ecc565b915061394782613906565b602082019050919050565b6000602082019050818103600083015261396b8161392f565b9050919050565b7f506c65617365207265676973746572206265666f726520656e746572696e672060008201527f67616d652e000000000000000000000000000000000000000000000000000000602082015250565b60006139ce602583612ecc565b91506139d982613972565b604082019050919050565b600060208201905081810360008301526139fd816139c1565b9050919050565b7f506c656173652070726f766964652074686520657861637420616d6f756e742060008201527f746f20627579207469636b657400000000000000000000000000000000000000602082015250565b6000613a60602d83612ecc565b9150613a6b82613a04565b604082019050919050565b60006020820190508181036000830152613a8f81613a53565b9050919050565b7f436f6e74726163742069732064657374726f7965642e00000000000000000000600082015250565b6000613acc601683612ecc565b9150613ad782613a96565b602082019050919050565b60006020820190508181036000830152613afb81613abf565b9050919050565b7f4c6f7474657279206973206e6f74206f70656e2e000000000000000000000000600082015250565b6000613b38601483612ecc565b9150613b4382613b02565b602082019050919050565b60006020820190508181036000830152613b6781613b2b565b9050919050565b7f54696d65206c65667420746f20656e6420746865206c6f747465727900000000600082015250565b6000613ba4601c83612ecc565b9150613baf82613b6e565b602082019050919050565b60006020820190508181036000830152613bd381613b97565b9050919050565b7f546865726520617265206c6f74747269657320746f20626520647261776e2e00600082015250565b6000613c10601f83612ecc565b9150613c1b82613bda565b602082019050919050565b60006020820190508181036000830152613c3f81613c03565b9050919050565b7f436f6e7472616374206973206e6f742061637469766500000000000000000000600082015250565b6000613c7c601683612ecc565b9150613c8782613c46565b602082019050919050565b60006020820190508181036000830152613cab81613c6f565b9050919050565b7f4e756d6265722063616e277420626520736d616c6c6572207468616e20310000600082015250565b6000613ce8601e83612ecc565b9150613cf382613cb2565b602082019050919050565b60006020820190508181036000830152613d1781613cdb565b9050919050565b7f4e487b7100000000000000000000000000000000000000000000000000000000600052600160045260246000fd5b7f4e487b7100000000000000000000000000000000000000000000000000000000600052601260045260246000fd5b6000613d8782612a22565b9150613d9283612a22565b925082613da257613da1613d4d565b5b828204905092915050565b6000613db882612a22565b9150613dc383612a22565b9250828202613dd181612a22565b91508282048414831517613de857613de7613459565b5b5092915050565b6000613dfa82612a22565b9150613e0583612a22565b9250828201905080821115613e1d57613e1c613459565b5b92915050565b7f46756e64206e6f7420737566666963656e742c207465726d696e6174696e672060008201527f7472616e73666572000000000000000000000000000000000000000000000000602082015250565b6000613e7f602883612ecc565b9150613e8a82613e23565b604082019050919050565b60006020820190508181036000830152613eae81613e72565b9050919050565b7f6c6f7474657279206e616d652073686f756c64206265206f662061746c65617360008201527f74203520636861726163746572732e0000000000000000000000000000000000602082015250565b6000613f11602f83612ecc565b9150613f1c82613eb5565b604082019050919050565b60006020820190508181036000830152613f4081613f04565b9050919050565b7f6c6f7474657279206e616d652073686f756c646e2774206265206d6f7265207460008201527f68616e20333020636861726163746572732e0000000000000000000000000000602082015250565b6000613fa3603283612ecc565b9150613fae82613f47565b604082019050919050565b60006020820190508181036000830152613fd281613f96565b9050919050565b7f537472696e6720636f6e7461696e7320696e76616c696420636861726163746560008201527f722c206368617261637465722073686f756c642062652077697468696e205b3060208201527f2d395d205b412d5a5d205b612d7a5d20616e64205b5f5d206f6e6c7900000000604082015250565b600061405b605c83612ecc565b915061406682613fd9565b606082019050919050565b6000602082019050818103600083015261408a8161404e565b9050919050565b7f5469636b65742070726963652073686f756c64206265206174206c656173742060008201527f3120657468657200000000000000000000000000000000000000000000000000602082015250565b60006140ed602783612ecc565b91506140f882614091565b604082019050919050565b6000602082019050818103600083015261411c816140e0565b9050919050565b7f43616e27742068617665206d6f7265207468616e203520616374697665206c6f60008201527f747465727920617420612074696d652e00000000000000000000000000000000602082015250565b600061417f603083612ecc565b915061418a82614123565b604082019050919050565b600060208201905081810360008301526141ae81614172565b9050919050565b7f416c7265616479206170706c69656420666f722074686973206c6f7474657279600082015250565b60006141eb602083612ecc565b91506141f6826141b5565b602082019050919050565b6000602082019050818103600083015261421a816141de565b9050919050565b7f546865206c6f7474657279206861732065787069726564000000000000000000600082015250565b6000614257601783612ecc565b915061426282614221565b602082019050919050565b600060208201905081810360008301526142868161424a565b9050919050565b7f4c6f74746572792063616e277420626520647261776e20666f72206e6f772e00600082015250565b60006142c3601f83612ecc565b91506142ce8261428d565b602082019050919050565b600060208201905081810360008301526142f2816142b6565b9050919050565b7f54696d65206c65667420746f206472617720746865206c6f7474657279000000600082015250565b600061432f601d83612ecc565b915061433a826142f9565b602082019050919050565b6000602082019050818103600083015261435e81614322565b9050919050565b6000819050919050565b61438061437b82612a22565b614365565b82525050565b60008160601b9050919050565b600061439e82614386565b9050919050565b60006143b082614393565b9050919050565b6143c86143c382612db3565b6143a5565b82525050565b60006143da828661436f565b6020820191506143ea82856143b7565b6014820191506143fa828461436f565b602082019150819050949350505050565b600061441682612a22565b915061442183612a22565b92508261443157614430613d4d565b5b82820690509291505056fea26469706673582212205473e7edcf7f5ed977f3e8be6730d8ea108e1dab4c01cbda281539007769e1f664736f6c63430008130033",
  "linkReferences": {},
  "deployedLinkReferences": {}
}